:020000040800F2
:100000008004002045010008E90A0008990800085A
:10001000E50A000819070008291C00080000000074
:10002000000000000000000000000000BD100008FB
:100030001D07000800000000650F0008FD11000802
:100040005F0100085F0100085F0100085F01000810
:100050005F0100085F0100085F0100085F01000800
:100060005F0100085F0100085F0100085F010008F0
:100070005F0100085F0100085F0100085F010008E0
:100080005F0100085F0100085F0100085F010008D0
:100090005F0100085F0100085F0100085F010008C0
:1000A0005F0100085F0100085F0100085F010008B0
:1000B000A11400085F0100085D1600085F01000838
:1000C0005F0100085F0100085F0100085F01000890
:1000D0005F0100085F0100085F0100085F01000880
:1000E0005F0100085F0100085F0100085F01000870
:1000F0005F0100085F0100085F0100085F01000860
:100100005F0100085F0100085F0100085F0100084F
:100110005F0100085F0100085F0100085F0100083F
:100120005F0100085F0100085F0100085F0100082F
:10013000DFF80CD000F0DEFA00480047991E0008F6
:10014000800400200648804706480047FEE7FEE797
:10015000FEE7FEE7FEE7FEE7FEE7FEE7FEE7FEE777
:1001600001120008310100082DE9FE4F804681EAA6
:100170000300C00F0C46009021F0004123F0004521
:10018000B8EB0200A94105D24046214690461C46E4
:100190000B46024623F00040104347D0270DC7F31B
:1001A0000A00C3F30A510290401A019040286BDA0A
:1001B000C3F3130040F4801B0098924620B1002343
:1001C000D2EB030A63EB0B0B01985946C0F14002D6
:1001D000504600F0CAF906460D4650465946019A67
:1001E00000F0E2F910EB08006141002487EA1152A7
:1001F00084EAE7731A4340D0009A62B3019A012A55
:100200004FEA075215DC001B61EB02014FF0004280
:1002100002EA0752CDE90042001C41F58011324646
:100220002B4600F019FA03B0BDE8F08F4046214696
:10023000F9E7001B61EB0201001C41F58013001877
:100240005B412018A2F5001747EB030140EAD57087
:10025000B6196D4111E06D084FEA360645EAC075E2
:100260004FEA0752001B61EB0201001C41F58011AF
:1002700049084FEA30000019514132462B4603B07D
:10028000BDE8F04F00F0D9B90098012240000023EA
:10029000D0EB020263EBE073009821464FEAE07472
:1002A000B8EB000061EB0401E9E783F000435BE792
:1002B00081F0004158E72DE9FE4F81EA030404F084
:1002C000004421F0004100944FF0000B23F0004364
:1002D00050EA01045ED052EA03045BD0C3F30A542F
:1002E000C1F30A552C44A4F2F3340194A0FB025448
:1002F000C1F3130141F48011C3F3130343F48013DA
:1003000001FB024400FB034E840A970A44EA81542D
:1003100047EA8357A4FB076802958D0A05FB07850A
:100320004FEA932C04FB0C542705029D4FEA065814
:1003300047EA1637B5EB08056EEB070C870E920EF1
:1003400047EA811742EA8312A7FB0201B6EB0B01D1
:1003500064EB00042B0D43EA0C335E1844EB1C5095
:10036000DA465146E7FB0201C5F313044FEA0B33AB
:1003700043EA14534FEA0432019C43EA0603A4F112
:100380000C040294009CCDE900B400F065F903B0C0
:10039000BDE8F08F00200146F9E72DE9F04D81EA34
:1003A000030404F0004B21F0004514464FF0000A0E
:1003B00023F0004150EA050220D054EA01021DD08A
:1003C000C5F30A570246C5F31303C1F31300C1F383
:1003D0000A5640F4801543F48013A7EB0608101B5F
:1003E000D64608F2FD3873EB050002D308F1010888
:1003F00001E092185B41B8F1000F03DA00200146DA
:10040000BDE8F08D00204FF48011064684460EE0D2
:10041000171B73EB050705D3121B63EB050306439C
:100420004CEA010C49084FEA300092185B4150EA4F
:100430000107EDD152EA030012D082EA040083EAF8
:100440000501084305D0101BAB4106D20122002351
:1004500006E000224FF0004302E06FF0010253106B
:100460001AEB06004CEB085110EB0A0041EB0B01B4
:10047000BDE8F04D00F0E1B80EB5C10F80EAE070C4
:100480000844CA07002140F233438DE80E000A46B3
:100490000B4600F0E1F803B000BD00F0004220F090
:1004A0000040C10DC0F3160040F400007F2901DABE
:1004B00000207047962903DCC1F19601C84001E095
:1004C00096398840002AF4D04042704720F000401E
:1004D000C10DC0F3160040F400007F2901DA0020AE
:1004E0007047962903DCC1F19601C84070479639E0
:1004F0008840704770B5C1F30A5201F000450024EE
:10050000C1F3130140F2FF3341F480119A4201DA42
:10051000002070BD40F233439A42A2F2334203DC22
:10052000524200F031F800E090402C43F1D04042BC
:1005300070BD01F0004330B421F0004150EA0102E7
:1005400006D00A0DA2F56072C1F31301002A02DC85
:1005500030BC00207047440F44EAC104C100E018D9
:1005600030BC00EBC25000F031B8202A04DB203A46
:1005700000FA02F1002070479140C2F1200320FAF6
:1005800003F3194390407047202A04DB203A21FAF4
:1005900002F00021704721FA02F3D040C2F120029C
:1005A0009140084319467047202A06DBCB17203AB2
:1005B00041FA02F043EAE07306E041FA02F3D04068
:1005C000C2F1200291400843194670470029A8BF94
:1005D0007047401C490008BF20F00100704710B46C
:1005E000B0FA80FC00FA0CF050EA010404BF10BC21
:1005F000704749B1CCF1200421FA04F411FA0CF14E
:1006000018BF012121430843A3EB0C01CB1D4FEA86
:1006100000614FEA102042BF002010BC704700EB81
:10062000C35010440029A4BF10BC7047401C4900AF
:1006300008BF20F0010010BC704710B5141E73F104
:10064000000408DA401C41F1000192185B411A4392
:1006500001D120F0010010BD2DE9F04D92469B46DE
:1006600011B1B1FA81F202E0B0FA80F22032904684
:10067000FFF77BFF04460F4640EA0A0041EA0B0100
:1006800053465A46084313D0114653EA010019D085
:10069000C8F140025046FFF777FF05460E46504628
:1006A00059464246FFF761FF084305D0012004E0A8
:1006B00020463946BDE8F08D0020054346EAE07645
:1006C0002C4337430A986305E40AA0EB0800002294
:1006D000FD0A44EA47540A3002D500200146E9E702
:1006E000010510196941DDE9084500196941BDE8B6
:1006F000F04DA2E7064C074D06E0E06840F001032C
:1007000094E8070098471034AC42F6D3FFF714FD85
:10071000FC2B00081C2C000800BFFEE770470000FF
:1007200008B50121082000F03FFC14208DF80300DB
:100730000320ADF800008DF802006946054800F07E
:100740000BF80121034800F09DF80221014800F058
:1007500099F808BD000C01402DE9F0410246002542
:100760000026002000230024002791F803C00CF08D
:100770000F0591F803C00CF0100CBCF1000F03D072
:1007800091F802C04CEA050591F800C0BCF1000FD9
:1007900031D0146800202BE04FF0010C0CFA00F36C
:1007A000B1F800C00CEA03069E4220D183004FF04E
:1007B0000F0C0CFA03F7BC4305FA03FC4CEA0404E3
:1007C00091F803C0BCF1280F06D14FF0010C0CFAD0
:1007D00000FCC2F814C00AE091F803C0BCF1480F55
:1007E00005D14FF0010C0CFA00FCC2F810C0401CFF
:1007F0000828D1D31460B1F800C0BCF1FF0F34DD7C
:10080000546800202EE000F1080C4FF0010808FAAF
:100810000CF3B1F800C00CEA03069E4221D183001C
:100820004FF00F0C0CFA03F7BC4305FA03FC4CEA3B
:10083000040491F803C0BCF1280F05D100F1080CA5
:1008400008FA0CF8C2F8148091F803C0BCF1480F04
:1008500007D100F1080C4FF0010808FA0CF8C2F8B3
:100860001080401C0828CED35460BDE8F0810246B9
:10087000002093680B400BB1012000E0002070477E
:1008800041617047016170474FF6FF71018002219D
:1008900081700421C170704700BFFEE721B102885A
:1008A00042F00102028004E002884FF6FE731A4013
:1008B0000280704710B504460B48844209D10121DB
:1008C000480500F061FB00214FF4001000F05CFBD4
:1008D00008E00121880500F057FB00214FF480005B
:1008E00000F052FB10BD0000005400402DE9F04321
:1008F00085B004460D460026B1460427DFF8CC80BB
:10090000A6884FF6C0700640684600F06DFBDDF823
:1009100008802F48B8FBF0F01FFA80F946EA090674
:10092000A68020884FF6FE710840208000262949C5
:10093000286888420CD828684000B8FBF0F087B2DD
:10094000042F00DA04273E4309F10100208427E048
:10095000E8884BF6FF71884206D1286800EB40001A
:10096000B8FBF0F087B209E0286800EBC00101EBAA
:100970000010B8FBF0F087B247F48047C7F30B00D4
:1009800008B947F0010747F4004006434FF496705A
:1009900009FB00F04FF47A7190FBF1F0401C2084C9
:1009A000A683208840F00100208026884FF6F5308D
:1009B0000640A8886989084306432680A8892989B2
:1009C0000843208105B0BDE8F083000000127A00E2
:1009D00040420F00A086010000B585B0012108202B
:1009E00000F0E2FA0121480500F0BEFA1C208DF863
:1009F0000300C020ADF8000003208DF80200694616
:100A00001148FFF7A9FE1148FFF754FF4FF480602B
:100A1000ADF80E000001ADF810000D4801904BF646
:100A2000FF70ADF80A000020ADF808003020ADF8E6
:100A30000C0001A90548FFF759FF01210348FFF702
:100A40002DFF05B000BD0000000C01400054004027
:100A5000801A060010B501211248FFF711FF01208E
:100A600001F00CFA02210F48FFF70CFF012001F002
:100A700005FA01210B48FFF705FF012001F0FEF9FF
:100A800002210848FFF7F3FE08B1012400E000242A
:100A900001210448FFF7F4FE012001F0EFF92046A0
:100AA00010BD0000000C014070B504460C4800F079
:100AB0007BFB002508E000BF4FF0E020006900F458
:100AC00080300028F8D06D1CA542F4D34FF0E02010
:100AD000006920F001004FF0E021086170BD0000C6
:100AE0004019010000BFFEE77047000070B500210B
:100AF00000230F22C47804B3154C246804F4E06486
:100B0000C4F5E064210AC1F10403CA40447804FA40
:100B100003F184781440214309010E4C0678A15555
:100B2000047804F01F050124AC4005786D11AD0078
:100B300005F1E025C5F8004109E0047804F01F053F
:100B40000124AC40044D0678761145F8264070BD6E
:100B50000CED00E000E400E080E100E00249014328
:100B6000024A1160704700000000FA050CED00E039
:100B700010B502210C48FFF785FE01210A48FFF756
:100B800081FE012001F07AF902210748FFF778FE83
:100B9000012001F073F901210348FFF771FE0120E4
:100BA00001F06CF910BD0000000C014010B50221ED
:100BB0000A48FFF765FE012001F060F901210748AE
:100BC000FFF760FE012001F059F902210348FFF709
:100BD00059FE012001F052F910BD0000000C014047
:100BE00010B5C82001F03EF9FFF79AFD0021AE20B4
:100BF00000F011F90021084600F00DF90021102045
:100C000000F009F90021402000F005F90021B02092
:100C100000F001F90021812000F0FDF80021FF2003
:100C200000F0F9F80021A12000F0F5F80021A6203D
:100C300000F0F1F80021A82000F0EDF800213F209D
:100C400000F0E9F80021C82000F0E5F80021D320E9
:100C500000F0E1F80021084600F0DDF80021D52081
:100C600000F0D9F80021802000F0D5F80021D9202B
:100C700000F0D1F80021F12000F0CDF80021DA20B9
:100C800000F0C9F80021122000F0C5F80021DB2097
:100C900000F0C1F80021402000F0BDF800218D20B7
:100CA00000F0B9F80021142000F0B5F80021AF20C1
:100CB00000F0B1F800F0BBF80021084600F001F8A0
:100CC00010BD70B504460D4605F1B001C8B2002153
:100CD00000F0A1F804F00F00002100F09CF81021B2
:100CE00041EA1410002100F096F870BD2DE9F041A2
:100CF00007460E46904600250024A8F12000C5B204
:100D0000802F02DD0027B01CC6B231463846FFF7FF
:100D1000D8FF002408E004EB05110F4A505C0121C4
:100D200000F079F8601CC4B2082CF4DB701CC1B26E
:100D30003846FFF7C6FF002409E004EB051108312F
:100D4000054A505C012100F066F8601CC4B2082C12
:100D5000F3DBBDE8F08100004C2100082DE9FF5FC6
:100D6000074691461D460E9E4FF0000A002433E0D0
:100D7000281B401EC1B20A2001F0BAF8B9FBF0F0FE
:100D80000A21B0FBF1F201FB1208BAF1000F13D1F6
:100D9000681EA04210DDB8F1000F0BD1B34606EB80
:100DA000DB71491001FB0471C8B220220199FFF7E1
:100DB0009DFF0FE04FF0010AB34606EBDB714910CF
:100DC00001FB0471C8B208F13001CAB20199FFF702
:100DD0008DFF00BF601CC4B2AC42C9DBBDE8FF9F01
:100DE0002DE9F04104460F46154600260EE0AA5DA7
:100DF00039462046FFF77AFF04F10800C4B2802C80
:100E000002DB0024B81CC7B2701CC6B2A85D002863
:100E1000EDD1BDE8F08170B505460C461CB1284601
:100E200000F04AFF02E0284600F036FF70BD70B5C2
:100E3000002419E004F1B001C8B20021FFF7EBFF74
:100E400000210846FFF7E7FF00211020FFF7E3FF2E
:100E5000002505E001210020FFF7DDFF681CC5B279
:100E6000802DF7DB601CC4B2082CE3DB70BD0000F2
:100E70002DE9F04F8BB004468946A9EB040A2649B8
:100E80000968C869FFF7F8FA054623480068D0E901
:100E900004733A462846FFF70EFACDE906011E49CB
:100EA00009688869FFF7E8FA074688461A48016822
:100EB000D1E902532A4638464146FFF7FCF9CDE90D
:100EC00002015046FFF7D8FA074613480068D0E9F8
:100ED00000532A463846FFF7EEF9CDE90001DDE977
:100EE0000223FFF7E2F9CDE90401DDE90623FFF76C
:100EF0003BF9CDE90801FFF7FDFA83460648006893
:100F0000806905490968C86103480068C0F818A0ED
:100F100058460BB0BDE8F08F4800002000200C4977
:100F2000096888610A490968C86100210948084AB6
:100F30001268C2E9001008490848054A1268C2E967
:100F400002100748024A1268C2E904107047000004
:100F5000480000200000F83F9A9999999999B93F63
:100F60009999D9BF7047000029B1064AD269024356
:100F7000044BDA6104E0034AD2698243014BDA612F
:100F8000704700000010024029B1064A126902436E
:100F9000044B1A6104E0034A12698243014B1A614F
:100FA000704700000010024029B1064A92690243CE
:100FB000044B9A6104E0034A92698243014B9A61AF
:100FC000704700000010024029B1064AD26802436F
:100FD000044BDA6004E0034AD2688243014BDA60D2
:100FE000704700000010024030B5002100220024AC
:100FF00000232D4D6D6805F00C0121B1042905D0A9
:10100000082923D105E0294D056022E0274D056020
:101010001FE0254D6D6805F47012234D6D6805F4D1
:101020008034022505EB92421CB9214D55430560E1
:101030000BE01D4D6D6805F400351DB11C4D554389
:10104000056002E0194D5543056002E0174D05604B
:1010500000BF00BF144D6D6805F0F0010909154D82
:101060006B5C0568DD4045600F4D6D6805F4E0611F
:10107000090A104D6B5C4568DD4085600A4D6D685E
:1010800005F46051C90A0B4D6B5C4568DD40C560D5
:10109000054D6D6805F44041890B074D6B5CC568D3
:1010A000B5FBF3F5056130BD0010024000127A0077
:1010B00000093D004C0000205C000020704710B586
:1010C00000F002F810BD00000CB500200190009067
:1010D0003348006840F480303149086000BF304830
:1010E000006800F4003000900198401C01900098C6
:1010F00018B90198B0F5A06FF1D12948006800F443
:10110000003010B10120009001E000200090009814
:10111000012843D12348006840F0100021490860AD
:101120000846006820F0030008600846006840F0A8
:10113000020008601A48406819494860084640683B
:1011400048600846406840F480604860084640684F
:1011500020F47C1048600846406840F4E81048607D
:101160000846006840F08070086000BF0C480068C6
:1011700000F000700028F9D00948406820F0030012
:10118000074948600846406840F00200486000BFD8
:101190000348406800F00C000828F9D10CBD00009D
:1011A000001002400020024030B50146B1F1807FBE
:1011B00001D3012030BD21F07F40401E4FF0E022DE
:1011C000506150170F22002807DA13071D0E094B34
:1011D00000F00F04241F1D5503E013071C0E064BDF
:1011E0001C5400BF00204FF0E022906107201061E6
:1011F0000020DFE718ED00E000E400E070470000A9
:1012000010B51348006840F0010011490860084615
:101210004068104908400E494860084600680E4979
:1012200008400B4908600846006820F480200860E8
:101230000846406820F4FE0048604FF41F008860B4
:10124000FFF73DFF4FF000600449086010BD00004B
:10125000001002400000FFF8FFFFF6FE08ED00E07E
:10126000F0B50C46154600220021068C4FF6FE779D
:101270003E400684028B018C4FF60C7632407E1C79
:1012800006EA03162E433243104EB0420ED0104EE3
:10129000B0420BD0B0F1804F08D00E4EB04205D016
:1012A0000D4EB04202D00D4EB04206D14FF6FD7643
:1012B000314044F00106314305E04FF6F576314008
:1012C00044F00106314302830184F0BD002C01404B
:1012D000003401400004004000080040000C0040C1
:1012E000F0B50C461546002200210026078C4FF66B
:1012F000EF7C07EA0C070784028B018C4FF6FF771F
:1013000007EA041640F6FF473A404FF6FF7707EA30
:1013100003373A434FF6FF7707EA05273A43114F61
:10132000B8420ED0104FB8420BD0B0F1804F08D069
:101330000E4FB84205D00E4FB84202D00D4FB84202
:1013400006D14FF6DF77394046F01007394305E004
:101350004FF65F77394044F0100739430283018428
:10136000F0BD0000002C01400034014000040040AA
:1013700000080040000C0040F0B50C461546002265
:1013800000210026078C4FF6FF6C07EA0C07078444
:10139000828B018C4FF6FF7707EA04264FF60C7715
:1013A0003A404FF6FF7707EA03172F433A43114FAE
:1013B000B8420ED0104FB8420BD0B0F1804F08D0D9
:1013C0000E4FB84205D00E4FB84202D00D4FB84272
:1013D00006D14FF6FF57394046F48077394305E090
:1013E0004FF2FF57394044F48077394382830184B8
:1013F000F0BD0000002C014000340140000400401A
:1014000000080040000C0040F0B50C4615460022D4
:1014100000210026078C4EF6FF7C07EA0C070784A4
:10142000828B018C4FF6FF7707EA043640F6FF47C0
:101430003A404FF6FF7707EA05273A434FF6FF7722
:1014400007EA03373A43114FB8420ED0104FB84263
:101450000BD0B0F1804F08D00E4FB84205D00E4FE0
:10146000B84202D00D4FB84206D14DF6FF77394051
:1014700046F48057394305E047F6FF57394044F4B6
:101480008057394382830184F0BD0000002C014065
:10149000003401400004004000080040000C0040FF
:1014A00010B50121880700F00CFA08B100F024FC07
:1014B0000121880700F0E1F810BD7FB505460C4614
:1014C00001210846FFF750FDADF80850ADF8044083
:1014D0000020ADF80600ADF80A0001A94FF08040E9
:1014E00000F050FB01221146900700F05AFA01214A
:1014F000880700F0C5F81C208DF8000001208DF849
:10150000010003208DF8020001208DF803006846D9
:10151000FFF7ECFA7FBD000030B589B005460C46F8
:1015200001210420FFF740FD01210220FFF71CFDEF
:1015300018208DF82300C020ADF8200003208DF87E
:10154000220008A91748FFF707F9ADF81850ADF8C1
:1015500014400020ADF81A00ADF8160005A9124895
:1015600000F010FB7020ADF804000120ADF806007B
:101570000220ADF80C0001A90B4800F071FA082117
:10158000094800F0BFFA01A9074800F013FA082142
:10159000054800F05BFA0121034800F071F809B03A
:1015A00030BD0000000801400004004000B587B0D5
:1015B00001210420FFF7D8FC01210820FFF7F4FCEB
:1015C00006A8FFF761F9C020ADF8180004208DF8D7
:1015D0001B0003208DF81A0006A91E48FFF7BCF86F
:1015E00001210420FFF7C0FC1B4800F055F8002043
:1015F000ADF80C004FF6FF70ADF810000020ADF80C
:101600001200ADF80E0003A9134800F0BBFA002346
:101610001A460321104800F033F9684600F0B8F983
:101620000020ADF8080069460B4800F05BF9002186
:10163000094800F078FA0121074800F01BF8012260
:101640001146054800F0ADF90121034800F018F8F3
:1016500007B000BD000C01400008004004480088AD
:101660000348008820F0010001490880704700000D
:1016700010080040CA4302827047CA430282704782
:1016800021B1028842F00102028004E002884FF694
:10169000FE731A400280704710B5044668488442C1
:1016A00008D10121C014FFF78FFC0021E014FFF7DF
:1016B0008BFCC4E0B4F1804F08D101210846FFF74C
:1016C00063FC00210120FFF75FFCB8E05D48844225
:1016D00008D101210220FFF757FC00210220FFF76B
:1016E00053FCACE05848844208D101210420FFF7A4
:1016F0004BFC00210420FFF747FCA0E05348844244
:1017000008D101210820FFF73FFC00210820FFF746
:101710003BFC94E04E48844208D101211020FFF7A1
:1017200033FC00211020FFF72FFC88E04948844259
:1017300008D101212020FFF727FC00212020FFF7FE
:1017400023FC7CE04448844208D101214014FFF787
:101750003BFC00216014FFF737FC70E03F488442F7
:1017600009D10121C804FFF72FFC00214FF400200C
:10177000FFF72AFC63E03A48844209D101210805B9
:10178000FFF722FC00214FF48010FFF71DFC56E00C
:101790003448844209D101214805FFF715FC002196
:1017A0004FF40010FFF710FC49E02F48844208D1A5
:1017B00001214020FFF7E8FB00214020FFF7E4FB78
:1017C0003DE02A48844208D101218020FFF7DCFB5C
:1017D00000218020FFF7D8FB31E02548844208D162
:1017E00001218015FFF7D0FB0021A015FFF7CCFBEE
:1017F00025E02048844209D101210804FFF7E4FBD9
:1018000000214FF48030FFF7DFFB18E01A488442D4
:1018100009D101214804FFF7D7FB00214FF4003024
:10182000FFF7D2FB0BE01548844208D10121880460
:10183000FFF7CAFB00214FF48020FFF7C5FB10BD66
:10184000002C01400004004000080040000C004053
:10185000001000400014004000340140004C0140E2
:10186000005001400054014000180040001C00409E
:101870000020004000400140004401400048014079
:10188000F0B50C4615461E460021002200230189B2
:10189000028B038C4FF6F877394021434FF6FC4713
:1018A0003A4040F201173A434FF6DD773B404FF69E
:1018B000FF7707EA06172F433B4301810283038426
:1018C000F0BD30B50246002000230024158A05EA49
:1018D0000103958905EA010413B10CB1012000E070
:1018E000002030BD70B505460C46244885420ED018
:1018F000234885420BD0B5F1804F08D0214885425E
:1019000005D02148854202D02048854200D100E020
:1019100000BF208850B92389A28861882846FFF734
:101920009FFCE188284600F000F925E02088042883
:101930000AD12389A28861882846FFF7D1FCE18873
:10194000284600F0FBF817E0208808280AD12389F0
:10195000A28861882846FFF70FFDE188284600F03D
:10196000FAF809E02389A28861882846FFF74CFD30
:10197000E188284600F0F8F870BD0000002C014016
:10198000003401400004004000080040000C00400A
:10199000002101804180012181800021C1800181DD
:1019A00070471AB183890B43838102E083898B439B
:1019B0008381704770B5002400220023058C4FF608
:1019C000FE7635400584028C8388048B4FF68F7534
:1019D0002C40B51E2C400D882C43751E2A400D89C5
:1019E0002A434D882A43144DA8420BD0134DA842D8
:1019F00008D0134DA84205D0124DA84202D0124D76
:101A0000A84213D14FF6F7752A404D892A434FF665
:101A1000FB752A408D882A434FF6FF652B404FF611
:101A2000FF552B408D892B43CD892B438380048325
:101A3000CD888586028470BD002C014000340140B1
:101A40000040014000440140004801400A46002196
:101A5000018B4FF6F7731940114301837047000063
:101A600070B5002400220023058C4FF6EF76354038
:101A70000584028C8388048B48F6FF752C404FF652
:101A8000FF452C400D884FF6FF7606EA05252C43CE
:101A90004FF6DF752A400D8906EA05152A434D8861
:101AA00006EA05152A43154DA84202D0144DA84256
:101AB0001DD14FF67F752A404D894FF6FF7606EA15
:101AC00005152A434FF6BF752A408D8806EA05158D
:101AD0002A434FF6FF352B404FF2FF752B408D897F
:101AE00006EA85052B43CD8906EA85052B438380CD
:101AF0000483CD880587028470BD0000002C01405E
:101B0000003401400A460021018B4FF2FF73194057
:101B10004FF6FF7303EA022319430183704781865E
:101B200070470187704781847047028B4FF6F373CB
:101B30001A400283028B0A4302837047028B4FF2E2
:101B4000FF331A400283028B4FF6FF7303EA01232F
:101B50001A4302837047828B4FF6F3731A408283D5
:101B6000828B0A4382837047828B4FF2FF331A4085
:101B70008283828B4FF6FF7303EA01231A43828329
:101B800070470000002202881D4B98420ED01D4B6A
:101B900098420BD0B0F1804F08D01B4B984205D033
:101BA0001A4B984202D01A4B984204D14FF68F73C9
:101BB0001A404B881A43174B984207D0164B98424D
:101BC00004D04FF6FF431A40CB881A4302808B881B
:101BD00083850B8803850A4B98420BD0094B9842AA
:101BE00008D00E4B984205D00D4B984202D00D4BB9
:101BF000984201D10B7A038601238382704700004B
:101C0000002C014000340140000400400008004066
:101C1000000C004000100040001400400040014053
:101C2000004401400048014000BFFEE770B5044693
:101C3000002520E001211748FEF722FE012000F0D8
:101C40001DF904F0800020B102211248FEF71AFEAF
:101C500003E002210F48FEF713FE6006040E012088
:101C600000F00CF901210B48FEF70CFE012000F0FA
:101C700005F9681CC5B2082DDCDB01210548FEF71B
:101C8000FFFD012000F0FAF800BFFEF7E3FE002898
:101C9000FBD170BD000C014010B50446FEF768FF93
:101CA0007820FFF7C3FF0020FFF7C0FF2046FFF7B3
:101CB000BDFFFEF77BFF10BD10B50446FEF758FFD1
:101CC0007820FFF7B3FF4020FFF7B0FF2046FFF773
:101CD000ADFFFEF76BFF10BD02E008C8121F08C180
:101CE000002AFAD170477047002001E001C1121F9D
:101CF000002AFBD1704700002DE9F84F00F004F9ED
:101D00004449086008460068FEF7B6FB8046424A30
:101D1000424BFEF742FB06460022414BFEF7CBFA50
:101D20000446FEF706FC3F4908603A480068FEF7A3
:101D3000A3FB80464FF03332384BFEF72EFB0646AE
:101D4000394A3A4BFEF7B7FA0446394A394BFEF79F
:101D500024FB8246FEF7EDFB374908600846006821
:101D6000FEF79BFB0446354801682046FFF780F8E4
:101D7000334908600846006810F1030F03DB08468A
:101D80000068032806DD2F4800682D4909680844CB
:101D90002C4908602B48006844F63821884202DD4F
:101DA0000846284908602748008881B22648FFF77E
:101DB000B6FE00212448FFF7B4FE24A20121002032
:101DC000FFF70EF81020082300901C48012102683C
:101DD0002020FEF7C3FF1FA201216120FFF700F8BA
:101DE0001EA204210020FEF7FBFF13480068FEF747
:101DF0006DFB044610200823224604210090202079
:101E0000FEF7ACFF13A204216120FEF7E9FFBDE855
:101E1000F88F000000000020343333333333684040
:101E20000000244004000020D7A3703D0AD73240B0
:101E30009A9999999999B93F0800002020000020AB
:101E4000100000202400002000040040686F70652E
:101E500000000000636D2F73000000006E6F773A82
:101E600000000000014606E042F6E06200E0521E7B
:101E7000002AFCD1491E0029F6D170470A2105E04D
:101E800000BF0A00A1F10103D9B2FAD10200A0F10A
:101E90000103D8B2F4D17047FFF740F8FEF79CFD7C
:101EA000FEF79EFE4FF47A70FEF7FEFDFEF798FEF9
:101EB0004FF4A060FEF752FEFFF778FB41F61F419A
:101EC00040F2E730FFF7F9FA472144F61F60FFF7C9
:101ED00023FB00210548FFF722FE00210348FFF7FE
:101EE00020FEFEF7A4FF00BFFEE700000004004054
:101EF00010B50246012000E050430B00A1F101049F
:101F0000E1B2F9D110BD000010B5002404480088EA
:101F100004B2002102482438FFF705FE204610BD18
:101F2000240800400000000000000000002F000016
:101F300000000700070000147F147F1400242A7F8C
:101F40002A1200626408132300364955225000000B
:101F50000503000000001C224100000041221C007B
:101F60000014083E08140008083E0808000000A0FD
:101F700060000008080808080000606000000020F9
:101F800010080402003E5149453E0000427F4000D7
:101F9000004261514946002141454B31001814125D
:101FA0007F10002745454539003C4A49493000012A
:101FB0007109050300364949493600064949291E79
:101FC00000003636000000005636000000081422DB
:101FD00041000014141414140000412214080002DB
:101FE0000151090600324959513E007C1211127C00
:101FF000007F49494936003E41414122007F41412D
:10200000221C007F49494941007F09090901003E1E
:102010004149497A007F0808087F0000417F41005C
:10202000002040413F01007F08142241007F4040D2
:102030004040007F020C027F007F0408107F003EBA
:102040004141413E007F09090906003E4151215EA0
:10205000007F091929460046494949310001017F9D
:102060000101003F4040403F001F2040201F003F33
:102070004038403F006314081463000708700807E5
:1020800000615149454300007F41410000552A55F8
:102090002A55000041417F00000402010204004073
:1020A0004040404000000102040000205454547895
:1020B000007F4844443800384444442000384444B5
:1020C000487F00385454541800087E090102001853
:1020D000A4A4A47C007F080404780000447D400090
:1020E000004080847D00007F102844000000417F74
:1020F0004000007C04180478007C08040478003850
:102100004444443800FC242424180018242418FCD7
:10211000007C0804040800485454542000043F4440
:102120004020003C4040207C001C2040201C003C03
:102130004030403C004428102844001CA0A0A07C53
:10214000004464544C44141414141414000000008B
:10215000000000000000000000000000000000F887
:1021600000000000000000333000000000100C06EA
:10217000100C0600000000000000000040C0784085
:10218000C0784000043F04043F040400007088FC51
:1021900008300000001820FF211E0000F008F000A9
:1021A000E018000000211C031E211E0000F008881A
:1021B000700000001E2123241927211010160E0084
:1021C000000000000000000000000000000000E02F
:1021D0001804020000000007182040000002041844
:1021E000E00000000040201807000000404080F0A0
:1021F000804040000202010F01020200000000F0D6
:10220000000000000101011F0101010000000000A9
:102210000000000080B0700000000000000000001E
:1022200000000000000101010101010100000000A7
:10223000000000000030300000000000000000003E
:1022400080601804006018060100000000E010081B
:102250000810E000000F102020100F00001010F8F0
:10226000000000000020203F20200000007008082F
:1022700008887000003028242221300000300888AF
:10228000884830000018202020110E000000C020D7
:1022900010F8000000070424243F240000F80888F8
:1022A000880808000019212020110E0000E0108885
:1022B00088180000000F112020110E0000380808B7
:1022C000C83808000000003F0000000000708808C7
:1022D00008887000001C222121221C0000E0100848
:1022E0000810E0000000312222110F00000000C0A1
:1022F000C00000000000003030000000000000803E
:10230000000000000000806000000000000080402D
:102310002010080000010204081020004040404046
:102320004040400004040404040404000008102099
:1023300040800000002010080402010000704808DE
:102340000808F0000000003036010000C030C82846
:10235000E810E0000718272423140B000000C03801
:10236000E0000000203C23020227382008F888887B
:1023700088700000203F202020110E00C030080887
:1023800008083800071820202010080008F808085E
:102390000810E000203F202020100F0008F8888857
:1023A000E8081000203F20202320180008F8888823
:1023B000E8081000203F200003000000C03008089B
:1023C0000838000007182020221E020008F8080024
:1023D0000008F808203F210101213F20000808F8EB
:1023E000080800000020203F20200000000008080E
:1023F000F8080800C08080807F00000008F888C0CE
:1024000028180800203F20012638200008F808007E
:1024100000000000203F20202020300008F8F800B5
:10242000F8F80800203F003F003F200008F830C0C7
:102430000008F808203F200007183F00E0100808B7
:102440000810E0000F10202020100F0008F80808E6
:102450000808F000203F210101010000E0100808F9
:102460000810E0000F18242438504F0008F888881E
:1024700088887000203F2000030C302000708808FE
:10248000080838000038202121221C00180808F80C
:10249000080818000000203F2000000008F808008D
:1024A0000008F808001F202020201F00087888005E
:1024B00000C83808000007380E010000F80800F8CE
:1024C0000008F800033C0700073C03000818688078
:1024D0008068180820302C03032C30200838C800EE
:1024E000C83808000000203F20000000100808083D
:1024F000C83808002038262120201800000000FEDF
:10250000020202000000007F40404000000C30C08A
:1025100000000000000000010638C00000020202B6
:10252000FE000000004040407F0000000000040268
:102530000202040000000000000000000000000093
:102540000000000080808080808080800002020483
:10255000000000000000000000000000000080807B
:10256000808000000019242222223F2008F80080E9
:1025700080000000003F112020110E0000000080AC
:1025800080800000000E112020201100000000803B
:102590008088F800000E112020103F20000080806D
:1025A00080800000001F222222221300008080F081
:1025B000888888180020203F2020000000008080AC
:1025C00080808000006B94949493600008F80080F1
:1025D00080800000203F210000203F20008098984C
:1025E000000000000020203F2020000000000080AC
:1025F0009898000000C08080807F000008F80000EC
:1026000080808000203F24022D302000000808F840
:10261000000000000020203F2020000080808080FB
:1026200080808000203F20003F20003F808000808D
:1026300080800000203F210000203F20000080809B
:1026400080800000001F202020201F00808000804C
:102650008000000080FFA12020110E0000000080FB
:1026600080808000000E112020A0FF8080808000EC
:102670008080800020203F21200001000000808019
:10268000808080000033242424241900008080E00E
:10269000808000000000001F2020000080800000DB
:1026A00000808000001F202020103F2080808000BC
:1026B0000080808000010E300806010080800080CC
:1026C000008080800F300C030C300F0000808000F1
:1026D000808080000020312E0E312000808080001C
:1026E0000080808080818E701806010000808080CC
:1026F000808080000021302C22213000000000006A
:10270000807C020200000000003F4040000000000A
:10271000FF00000000000000FF0000000002027C3B
:10272000800000000040403F000000000006010162
:10273000020204040000000000000000101010FF5E
:10274000109008888888FF888888080000000000AA
:102750000000000000000000000000000444827F30
:1027600001808040432C102846818000000000003A
:10277000000000000000000000000000404454651C
:10278000C664544400FC4444C442400000000000BD
:1027900000000000000000000000000020124A823B
:1027A0007F020A92601F0000FF000000000000008E
:1027B0000000000000000000000000000000F88899
:1027C000888888FF88888888F8000000000000005A
:1027D00000000000000000000000000000001F08D2
:1027E0000808087F888888889F80F0000000000023
:1027F00000000000000000000000000080828282D3
:10280000828282E2A2928A8682808000000000009A
:1028100000000000000000000000000000000000B8
:102820000040807F00000000000000000000000069
:102830000000000000000000000000002424A4FEAE
:10284000A3220022CC0000FF0000000000000000D6
:10285000000000000000000000000000080601FF6A
:1028600000010404040404FF02020200000000004E
:10287000000000000000000000000000101010FF29
:10288000109008888888FF88888808000000000069
:102890000000000000000000000000000444827FEF
:1028A00001808040432C10284681800000000000F9
:1028B0000000000000000000000000000000001008
:1028C000206000FC0440A098000000000000000010
:1028D00000000000000000000000000000000001F7
:1028E000414949292525243F01000000000000003E
:1028F000000000000000000000000000002020A0F8
:10290000A0A4A820209816F01010100000000000CD
:102910000000000000000000000000000000001F98
:102920000A2A7F00000F206F300000000000000026
:10293000000000000000000000000000000040084F
:10294000180008F8A868687418000000000000006B
:102950000000000000000000000000000000300E39
:1029600022203E221E122E221F1200000000000014
:102970000000000000000000000000000000000057
:10298000F090B0F056D82848000000000000000089
:102990000000000000000000000000000020100CFB
:1029A0004340402D131E22604040400000000000C4
:1029B0000000000000000000000000000000008097
:1029C0008000000000000000000000000000000087
:1029D00000000000000000000000000000000031C6
:1029E00031000000000000000000000000000000B6
:1029F000000000000000000000000000000C120CAD
:102A000000C0701008080808103000000000000026
:102A100000000000000000000000000000000000B6
:102A2000000F183020202020301C00000000000083
:102A3000000000000000000000000000000040084E
:102A40000808F8A8A858487C08000000000000000A
:102A50000000000000000000000000000000380638
:102A600020202C3D23213F242320200000000000B3
:102A700000000000000000000000000000F0F80866
:102A800088F8F000804020100800000000000000DE
:102A90000000000000000000000000000000002115
:102AA000180C0201001E3F21211E1E000000000024
:102AB0000000000000000000000000000000000016
:102AC0000000000000000000000000000000000006
:102AD00000000000000000000000000000000000F6
:102AE00000000000000000000000000000000000E6
:102AF00000000000000000000000000000000000D6
:102B000000000000000000000000000000000000C5
:102B10000000000000000000000000000000103075
:102B20003010000000000000000000000000000065
:102B30000000000000000000000000000000909075
:102B4000D0F8F8FEFEB8E8C8C88880000000000091
:102B500000000000000000000000000000010D0D5A
:102B60000D2D6DFFFF0505040404040000000000A6
:102B70000000000000000000000000000000080845
:102B80000808E898888444C4040404000000000095
:102B900000000000000000000000000000004030C5
:102BA0000807002040601F00000000000000000037
:102BB000000000000000000000000000000000080D
:102BC00008F8686668587808048000000000000073
:102BD00000000000000000000000000000808641AE
:102BE000211905053F4541414170000000000000EA
:102BF0000000000000000000000000001C2C000885
:102C00000000002060000000D81C00087C2C000898
:102C10006000002020040000E81C00080000000004
:102C200000000000000000000000000000000000A4
:102C300000000000000000000000000096000000FE
:102C40000000000000000000000000000000000084
:102C5000000000000000000000000000070000006D
:102C600000000000600000200000000001020304DA
:0C2C70000102030406070809020406081C
:0400000508000145A9
:00000001FF
